{
  "_format": "hh-sol-artifact-1",
  "contractName": "Mixer",
  "sourceName": "contracts/Mixer.sol",
  "abi": [
    {
      "inputs": [
        {
          "internalType": "address",
          "name": "_hasher",
          "type": "address"
        },
        {
          "internalType": "address",
          "name": "_verifier",
          "type": "address"
        }
      ],
      "stateMutability": "nonpayable",
      "type": "constructor"
    },
    {
      "inputs": [],
      "name": "ReentrancyGuardReentrantCall",
      "type": "error"
    },
    {
      "anonymous": false,
      "inputs": [
        {
          "indexed": false,
          "internalType": "uint256",
          "name": "root",
          "type": "uint256"
        },
        {
          "indexed": false,
          "internalType": "uint256[10]",
          "name": "hashPairings",
          "type": "uint256[10]"
        },
        {
          "indexed": false,
          "internalType": "uint8[10]",
          "name": "pairDirection",
          "type": "uint8[10]"
        }
      ],
      "name": "Deposit",
      "type": "event"
    },
    {
      "anonymous": false,
      "inputs": [
        {
          "indexed": false,
          "internalType": "address",
          "name": "to",
          "type": "address"
        },
        {
          "indexed": false,
          "internalType": "uint256",
          "name": "nullifierHash",
          "type": "uint256"
        }
      ],
      "name": "Withdrawal",
      "type": "event"
    },
    {
      "inputs": [],
      "name": "DENOMINATION",
      "outputs": [
        {
          "internalType": "uint256",
          "name": "",
          "type": "uint256"
        }
      ],
      "stateMutability": "view",
      "type": "function"
    },
    {
      "inputs": [],
      "name": "TREELEVEL",
      "outputs": [
        {
          "internalType": "uint8",
          "name": "",
          "type": "uint8"
        }
      ],
      "stateMutability": "view",
      "type": "function"
    },
    {
      "inputs": [
        {
          "internalType": "uint256",
          "name": "",
          "type": "uint256"
        }
      ],
      "name": "commitments",
      "outputs": [
        {
          "internalType": "bool",
          "name": "",
          "type": "bool"
        }
      ],
      "stateMutability": "view",
      "type": "function"
    },
    {
      "inputs": [
        {
          "internalType": "uint256",
          "name": "_commitment",
          "type": "uint256"
        }
      ],
      "name": "deposit",
      "outputs": [],
      "stateMutability": "payable",
      "type": "function"
    },
    {
      "inputs": [],
      "name": "hasher",
      "outputs": [
        {
          "internalType": "contract Hasher",
          "name": "",
          "type": "address"
        }
      ],
      "stateMutability": "view",
      "type": "function"
    },
    {
      "inputs": [
        {
          "internalType": "uint8",
          "name": "",
          "type": "uint8"
        }
      ],
      "name": "lastLevelHash",
      "outputs": [
        {
          "internalType": "uint256",
          "name": "",
          "type": "uint256"
        }
      ],
      "stateMutability": "view",
      "type": "function"
    },
    {
      "inputs": [
        {
          "internalType": "uint256",
          "name": "",
          "type": "uint256"
        }
      ],
      "name": "levelDefaults",
      "outputs": [
        {
          "internalType": "uint256",
          "name": "",
          "type": "uint256"
        }
      ],
      "stateMutability": "view",
      "type": "function"
    },
    {
      "inputs": [],
      "name": "nextLeafIndex",
      "outputs": [
        {
          "internalType": "uint256",
          "name": "",
          "type": "uint256"
        }
      ],
      "stateMutability": "view",
      "type": "function"
    },
    {
      "inputs": [
        {
          "internalType": "uint256",
          "name": "",
          "type": "uint256"
        }
      ],
      "name": "nullifierHashes",
      "outputs": [
        {
          "internalType": "bool",
          "name": "",
          "type": "bool"
        }
      ],
      "stateMutability": "view",
      "type": "function"
    },
    {
      "inputs": [
        {
          "internalType": "uint256",
          "name": "",
          "type": "uint256"
        }
      ],
      "name": "roots",
      "outputs": [
        {
          "internalType": "bool",
          "name": "",
          "type": "bool"
        }
      ],
      "stateMutability": "view",
      "type": "function"
    },
    {
      "inputs": [],
      "name": "verifier",
      "outputs": [
        {
          "internalType": "address",
          "name": "",
          "type": "address"
        }
      ],
      "stateMutability": "view",
      "type": "function"
    },
    {
      "inputs": [
        {
          "internalType": "uint256[2]",
          "name": "a",
          "type": "uint256[2]"
        },
        {
          "internalType": "uint256[2][2]",
          "name": "b",
          "type": "uint256[2][2]"
        },
        {
          "internalType": "uint256[2]",
          "name": "c",
          "type": "uint256[2]"
        },
        {
          "internalType": "uint256[2]",
          "name": "input",
          "type": "uint256[2]"
        }
      ],
      "name": "withdraw",
      "outputs": [],
      "stateMutability": "payable",
      "type": "function"
    }
  ],
  "bytecode": "0x608060405260006003556040518061014001604052807f9d3bd7055ed3ef7995bf399eeadf5e0c8c46bf1d88d0fda8112cb72fa66ecedb81526020017fcf5e04918bee777d8c82e1fe6d8efd8c0d7c1c41d9befa8fd05f7e8154d4f4a281526020017f1a9d2df08b50391e95260b674a29b05a569e5c1dd30531f7d5d255a642761f8881526020017f744b2185b27382fcfb4e6c58565691ea6afc1fd27311ca6e7d0a4d55049cb7b781526020017f59c10dd602685073e57eefe7aa02699a0bfb6f37882aefbb662bcfef56b2878881526020017f2d4b9a417ee8fee7b6908157f9c4f8e3a6100815c6836c9b6a21e54f3d63634181526020017fa001f72a7b143e49cb8df7369b7fdd871eb0a720c93ea3e8d8727607385dec2381526020017f40cf09b1b1aa08597222d1a00d4ab574af9eb1d69498267db7142cd71b6eb32181526020017f4755579272e15927d74d828ffc229fcfaa6edf5878747ecdb5084729b84adc6c81526020017f4054fa812d35525e85a7f64eb389b2fcd0e88d7e4f94319d28d6c466abe28b24815250600890600a61019f92919061025f565b503480156101ac57600080fd5b50604051611f82380380611f8283398181016040528101906101ce919061031f565b600160008190555081600260006101000a81548173ffffffffffffffffffffffffffffffffffffffff021916908373ffffffffffffffffffffffffffffffffffffffff16021790555080600160006101000a81548173ffffffffffffffffffffffffffffffffffffffff021916908373ffffffffffffffffffffffffffffffffffffffff160217905550505061035f565b82600a810192821561028e579160200282015b8281111561028d578251825591602001919060010190610272565b5b50905061029b919061029f565b5090565b5b808211156102b85760008160009055506001016102a0565b5090565b600080fd5b600073ffffffffffffffffffffffffffffffffffffffff82169050919050565b60006102ec826102c1565b9050919050565b6102fc816102e1565b811461030757600080fd5b50565b600081519050610319816102f3565b92915050565b60008060408385031215610336576103356102bc565b5b60006103448582860161030a565b92505060206103558582860161030a565b9150509250929050565b611c148061036e6000396000f3fe6080604052600436106100a75760003560e01c80638b01429d116100645780638b01429d146101e4578063b6b55f251461020f578063c2b40ae41461022b578063c78784d714610268578063d540004714610284578063ed33639f146102c1576100a7565b80630be4f422146100ac5780630edb38ff146100d75780631f79a1e9146101145780632b7ac3f31461015157806349ce89971461017c5780635fdc6b5a146101b9575b600080fd5b3480156100b857600080fd5b506100c16102ec565b6040516100ce9190610c85565b60405180910390f35b3480156100e357600080fd5b506100fe60048036038101906100f99190610cdb565b6102f2565b60405161010b9190610c85565b60405180910390f35b34801561012057600080fd5b5061013b60048036038101906101369190610cdb565b61030d565b6040516101489190610d23565b60405180910390f35b34801561015d57600080fd5b5061016661032d565b6040516101739190610d7f565b60405180910390f35b34801561018857600080fd5b506101a3600480360381019061019e9190610cdb565b610353565b6040516101b09190610d23565b60405180910390f35b3480156101c557600080fd5b506101ce610373565b6040516101db9190610db6565b60405180910390f35b3480156101f057600080fd5b506101f9610378565b6040516102069190610c85565b60405180910390f35b61022960048036038101906102249190610cdb565b610384565b005b34801561023757600080fd5b50610252600480360381019061024d9190610cdb565b6107c2565b60405161025f9190610d23565b60405180910390f35b610282600480360381019061027d9190610fc9565b6107e2565b005b34801561029057600080fd5b506102ab60048036038101906102a6919061105e565b610b76565b6040516102b89190610c85565b60405180910390f35b3480156102cd57600080fd5b506102d6610b8e565b6040516102e391906110ea565b60405180910390f35b60035481565b600881600a811061030257600080fd5b016000915090505481565b60066020528060005260406000206000915054906101000a900460ff1681565b600160009054906101000a900473ffffffffffffffffffffffffffffffffffffffff1681565b60076020528060005260406000206000915054906101000a900460ff1681565b600a81565b67016345785d8a000081565b61038c610bb4565b67016345785d8a000034146103d6576040517f08c379a00000000000000000000000000000000000000000000000000000000081526004016103cd90611162565b60405180910390fd5b6007600082815260200190815260200160002060009054906101000a900460ff1615610437576040517f08c379a000000000000000000000000000000000000000000000000000000000815260040161042e906111ce565b60405180910390fd5b600a60026104459190611350565b60035410610488576040517f08c379a000000000000000000000000000000000000000000000000000000000815260040161047f906113e7565b60405180910390fd5b6000610492610c04565b61049a610c27565b6000600354905060008590506000806104b1610c4a565b60005b600a60ff168160ff1610156106fe5760006002876104d29190611436565b0361055b5784935060088160ff16600a81106104f1576104f0611467565b5b0154925060088160ff16600a811061050c5761050b611467565b5b0154888260ff16600a811061052457610523611467565b5b6020020181815250506000878260ff16600a811061054557610544611467565b5b602002019060ff16908160ff16815250506105dd565b600560008260ff1660ff168152602001908152602001600020549350849250600560008260ff1660ff16815260200190815260200160002054888260ff16600a81106105aa576105a9611467565b5b6020020181815250506001878260ff16600a81106105cb576105ca611467565b5b602002019060ff16908160ff16815250505b84600560008360ff1660ff1681526020019081526020016000208190555083826000600281106106105761060f611467565b5b602002018181525050828260016002811061062e5761062d611467565b5b6020020181815250506000600260009054906101000a900473ffffffffffffffffffffffffffffffffffffffff1673ffffffffffffffffffffffffffffffffffffffff1663d622e5a4620249f0858e6040518463ffffffff1660e01b815260040161069a929190611541565b6020604051808303818786fa1580156106b7573d6000803e3d6000fd5b50505050506040513d601f19601f820116820180604052508101906106dc919061157f565b90508095506002876106ee91906115ac565b96505080806001019150506104b4565b508397506001600460008a815260200190815260200160002060006101000a81548160ff02191690831515021790555060016003600082825461074191906115dd565b925050819055506001600760008b815260200190815260200160002060006101000a81548160ff0219169083151502179055507fe6ab8667cb740d6c65a4ad321c031eb42f6c5085d5753238d1b2e1e370c134838888886040516107a793929190611740565b60405180910390a150505050505050506107bf610bfa565b50565b60046020528060005260406000206000915054906101000a900460ff1681565b6107ea610bb4565b600081600060028110610800576107ff611467565b5b6020020151905060008260016002811061081d5761081c611467565b5b602002015190506006600082815260200190815260200160002060009054906101000a900460ff1615610885576040517f08c379a000000000000000000000000000000000000000000000000000000000815260040161087c906117c5565b60405180910390fd5b6004600083815260200190815260200160002060009054906101000a900460ff166108e5576040517f08c379a00000000000000000000000000000000000000000000000000000000081526004016108dc90611831565b60405180910390fd5b60003373ffffffffffffffffffffffffffffffffffffffff1690506000600160009054906101000a900473ffffffffffffffffffffffffffffffffffffffff1673ffffffffffffffffffffffffffffffffffffffff1688888860405180606001604052808981526020018881526020018781525060405160240161096c94939291906119d3565b6040516020818303038152906040526311479fea60e01b6020820180517bffffffffffffffffffffffffffffffffffffffffffffffffffffffff83818316178352505050506040516109be9190611a8b565b6000604051808303816000865af19150503d80600081146109fb576040519150601f19603f3d011682016040523d82523d6000602084013e610a00565b606091505b5050905080610a44576040517f08c379a0000000000000000000000000000000000000000000000000000000008152600401610a3b90611aee565b60405180910390fd5b60016006600085815260200190815260200160002060006101000a81548160ff021916908315150217905550600033905060008173ffffffffffffffffffffffffffffffffffffffff1667016345785d8a0000604051610aa390611b34565b60006040518083038185875af1925050503d8060008114610ae0576040519150601f19603f3d011682016040523d82523d6000602084013e610ae5565b606091505b5050905080610b29576040517f08c379a0000000000000000000000000000000000000000000000000000000008152600401610b2090611b95565b60405180910390fd5b7f7fcf532c15f0a6db0bd6d0e038bea71d30d808c7d98cb3bf7268a95bf5081b653386604051610b5a929190611bb5565b60405180910390a1505050505050610b70610bfa565b50505050565b60056020528060005260406000206000915090505481565b600260009054906101000a900473ffffffffffffffffffffffffffffffffffffffff1681565b600260005403610bf0576040517f3ee5aeb500000000000000000000000000000000000000000000000000000000815260040160405180910390fd5b6002600081905550565b6001600081905550565b604051806101400160405280600a90602082028036833780820191505090505090565b604051806101400160405280600a90602082028036833780820191505090505090565b6040518060400160405280600290602082028036833780820191505090505090565b6000819050919050565b610c7f81610c6c565b82525050565b6000602082019050610c9a6000830184610c76565b92915050565b6000604051905090565b600080fd5b610cb881610c6c565b8114610cc357600080fd5b50565b600081359050610cd581610caf565b92915050565b600060208284031215610cf157610cf0610caa565b5b6000610cff84828501610cc6565b91505092915050565b60008115159050919050565b610d1d81610d08565b82525050565b6000602082019050610d386000830184610d14565b92915050565b600073ffffffffffffffffffffffffffffffffffffffff82169050919050565b6000610d6982610d3e565b9050919050565b610d7981610d5e565b82525050565b6000602082019050610d946000830184610d70565b92915050565b600060ff82169050919050565b610db081610d9a565b82525050565b6000602082019050610dcb6000830184610da7565b92915050565b600080fd5b6000601f19601f8301169050919050565b7f4e487b7100000000000000000000000000000000000000000000000000000000600052604160045260246000fd5b610e1f82610dd6565b810181811067ffffffffffffffff82111715610e3e57610e3d610de7565b5b80604052505050565b6000610e51610ca0565b9050610e5d8282610e16565b919050565b600067ffffffffffffffff821115610e7d57610e7c610de7565b5b602082029050919050565b600080fd5b6000610ea0610e9b84610e62565b610e47565b90508060208402830185811115610eba57610eb9610e88565b5b835b81811015610ee35780610ecf8882610cc6565b845260208401935050602081019050610ebc565b5050509392505050565b600082601f830112610f0257610f01610dd1565b5b6002610f0f848285610e8d565b91505092915050565b600067ffffffffffffffff821115610f3357610f32610de7565b5b602082029050919050565b6000610f51610f4c84610f18565b610e47565b90508060408402830185811115610f6b57610f6a610e88565b5b835b81811015610f945780610f808882610eed565b845260208401935050604081019050610f6d565b5050509392505050565b600082601f830112610fb357610fb2610dd1565b5b6002610fc0848285610f3e565b91505092915050565b6000806000806101408587031215610fe457610fe3610caa565b5b6000610ff287828801610eed565b945050604061100387828801610f9e565b93505060c061101487828801610eed565b92505061010061102687828801610eed565b91505092959194509250565b61103b81610d9a565b811461104657600080fd5b50565b60008135905061105881611032565b92915050565b60006020828403121561107457611073610caa565b5b600061108284828501611049565b91505092915050565b6000819050919050565b60006110b06110ab6110a684610d3e565b61108b565b610d3e565b9050919050565b60006110c282611095565b9050919050565b60006110d4826110b7565b9050919050565b6110e4816110c9565b82525050565b60006020820190506110ff60008301846110db565b92915050565b600082825260208201905092915050565b7f596f752063616e206f6e6c79206465706f736974652031206574686572000000600082015250565b600061114c601d83611105565b915061115782611116565b602082019050919050565b6000602082019050818103600083015261117b8161113f565b9050919050565b7f436f6d6d69746d656e7420657869737465640000000000000000000000000000600082015250565b60006111b8601283611105565b91506111c382611182565b602082019050919050565b600060208201905081810360008301526111e7816111ab565b9050919050565b7f4e487b7100000000000000000000000000000000000000000000000000000000600052601160045260246000fd5b60008160011c9050919050565b6000808291508390505b6001851115611274578086048111156112505761124f6111ee565b5b600185161561125f5780820291505b808102905061126d8561121d565b9450611234565b94509492505050565b60008261128d5760019050611349565b8161129b5760009050611349565b81600181146112b157600281146112bb576112ea565b6001915050611349565b60ff8411156112cd576112cc6111ee565b5b8360020a9150848211156112e4576112e36111ee565b5b50611349565b5060208310610133831016604e8410600b841016171561131f5782820a90508381111561131a576113196111ee565b5b611349565b61132c848484600161122a565b92509050818404811115611343576113426111ee565b5b81810290505b9392505050565b600061135b82610c6c565b915061136683610d9a565b92506113937fffffffffffffffffffffffffffffffffffffffffffffffffffffffffffffffff848461127d565b905092915050565b7f4d65726b6c6520747265652069732066756c6c00000000000000000000000000600082015250565b60006113d1601383611105565b91506113dc8261139b565b602082019050919050565b60006020820190508181036000830152611400816113c4565b9050919050565b7f4e487b7100000000000000000000000000000000000000000000000000000000600052601260045260246000fd5b600061144182610c6c565b915061144c83610c6c565b92508261145c5761145b611407565b5b828206905092915050565b7f4e487b7100000000000000000000000000000000000000000000000000000000600052603260045260246000fd5b600060029050919050565b600081905092915050565b6000819050919050565b6114bf81610c6c565b82525050565b60006114d183836114b6565b60208301905092915050565b6000602082019050919050565b6114f381611496565b6114fd81846114a1565b9250611508826114ac565b8060005b8381101561153957815161152087826114c5565b965061152b836114dd565b92505060018101905061150c565b505050505050565b600060608201905061155660008301856114ea565b6115636040830184610c76565b9392505050565b60008151905061157981610caf565b92915050565b60006020828403121561159557611594610caa565b5b60006115a38482850161156a565b91505092915050565b60006115b782610c6c565b91506115c283610c6c565b9250826115d2576115d1611407565b5b828204905092915050565b60006115e882610c6c565b91506115f383610c6c565b925082820190508082111561160b5761160a6111ee565b5b92915050565b6000600a9050919050565b600081905092915050565b6000819050919050565b6000602082019050919050565b61164781611611565b611651818461161c565b925061165c82611627565b8060005b8381101561168d57815161167487826114c5565b965061167f83611631565b925050600181019050611660565b505050505050565b6000600a9050919050565b600081905092915050565b6000819050919050565b6116be81610d9a565b82525050565b60006116d083836116b5565b60208301905092915050565b6000602082019050919050565b6116f281611695565b6116fc81846116a0565b9250611707826116ab565b8060005b8381101561173857815161171f87826116c4565b965061172a836116dc565b92505060018101905061170b565b505050505050565b60006102a0820190506117566000830186610c76565b611763602083018561163e565b6117716101608301846116e9565b949350505050565b7f616c72656164792d7370656e7400000000000000000000000000000000000000600082015250565b60006117af600d83611105565b91506117ba82611779565b602082019050919050565b600060208201905081810360008301526117de816117a2565b9050919050565b7f6e6f742d726f6f74000000000000000000000000000000000000000000000000600082015250565b600061181b600883611105565b9150611826826117e5565b602082019050919050565b6000602082019050818103600083015261184a8161180e565b9050919050565b600060029050919050565b600081905092915050565b6000819050919050565b600081905092915050565b61188581611496565b61188f8184611871565b925061189a826114ac565b8060005b838110156118cb5781516118b287826114c5565b96506118bd836114dd565b92505060018101905061189e565b505050505050565b60006118df838361187c565b60408301905092915050565b6000602082019050919050565b61190181611851565b61190b818461185c565b925061191682611867565b8060005b8381101561194757815161192e87826118d3565b9650611939836118eb565b92505060018101905061191a565b505050505050565b600060039050919050565b600081905092915050565b6000819050919050565b6000602082019050919050565b6119858161194f565b61198f818461195a565b925061199a82611965565b8060005b838110156119cb5781516119b287826114c5565b96506119bd8361196f565b92505060018101905061199e565b505050505050565b6000610160820190506119e960008301876114ea565b6119f660408301866118f8565b611a0360c08301856114ea565b611a1161010083018461197c565b95945050505050565b600081519050919050565b600081905092915050565b60005b83811015611a4e578082015181840152602081019050611a33565b60008484015250505050565b6000611a6582611a1a565b611a6f8185611a25565b9350611a7f818560208601611a30565b80840191505092915050565b6000611a978284611a5a565b915081905092915050565b7f696e76616c69642d70726f6f6600000000000000000000000000000000000000600082015250565b6000611ad8600d83611105565b9150611ae382611aa2565b602082019050919050565b60006020820190508181036000830152611b0781611acb565b9050919050565b50565b6000611b1e600083611a25565b9150611b2982611b0e565b600082019050919050565b6000611b3f82611b11565b9150819050919050565b7f7061796d656e742d6661696c6564000000000000000000000000000000000000600082015250565b6000611b7f600e83611105565b9150611b8a82611b49565b602082019050919050565b60006020820190508181036000830152611bae81611b72565b9050919050565b6000604082019050611bca6000830185610d70565b611bd76020830184610c76565b939250505056fea26469706673582212207bd6230af2c2d59daa645b72bd8431bf8bea13118563b582ce032bce844bd0e764736f6c634300081b0033",
  "linkReferences": {},
  "deployedLinkReferences": {}
}